{
  "contractName": "ERC20TokenCreater",
  "abi": [
    {
      "inputs": [],
      "stateMutability": "nonpayable",
      "type": "constructor"
    },
    {
      "anonymous": false,
      "inputs": [
        {
          "indexed": false,
          "internalType": "address",
          "name": "token",
          "type": "address"
        },
        {
          "indexed": false,
          "internalType": "address",
          "name": "creator",
          "type": "address"
        }
      ],
      "name": "ERC20TokenCreated",
      "type": "event"
    },
    {
      "inputs": [
        {
          "internalType": "string",
          "name": "name",
          "type": "string"
        },
        {
          "internalType": "string",
          "name": "symbol",
          "type": "string"
        },
        {
          "internalType": "uint256",
          "name": "totalSupply",
          "type": "uint256"
        },
        {
          "internalType": "uint8",
          "name": "decimals",
          "type": "uint8"
        }
      ],
      "name": "ERC20TokenCreator",
      "outputs": [
        {
          "internalType": "address",
          "name": "",
          "type": "address"
        }
      ],
      "stateMutability": "nonpayable",
      "type": "function"
    }
  ],
  "bytecode": "0x608060405234801561001057600080fd5b50611f9c806100206000396000f3fe60806040523480156200001157600080fd5b50600436106200002e5760003560e01c806317304e571462000033575b600080fd5b6200005160048036038101906200004b919062000424565b62000069565b60405162000060919062000519565b60405180910390f35b600080858585856040516200007e9062000227565b6200008d9493929190620005eb565b604051809103906000f080158015620000aa573d6000803e3d6000fd5b509050806000803373ffffffffffffffffffffffffffffffffffffffff1673ffffffffffffffffffffffffffffffffffffffff168152602001908152602001600020600160003373ffffffffffffffffffffffffffffffffffffffff1673ffffffffffffffffffffffffffffffffffffffff168152602001908152602001600020548154811062000140576200013f62000646565b5b9060005260206000200160006101000a81548173ffffffffffffffffffffffffffffffffffffffff021916908373ffffffffffffffffffffffffffffffffffffffff16021790555060018060003373ffffffffffffffffffffffffffffffffffffffff1673ffffffffffffffffffffffffffffffffffffffff1681526020019081526020016000206000828254620001d99190620006a4565b925050819055507fcdae5f6ddbda7847ad809fcd087e35946ef42729ff7ecdbcc81a03eb3a52ab2881336040516200021392919062000701565b60405180910390a180915050949350505050565b611838806200072f83390190565b6000604051905090565b600080fd5b600080fd5b600080fd5b600080fd5b6000601f19601f8301169050919050565b7f4e487b7100000000000000000000000000000000000000000000000000000000600052604160045260246000fd5b6200029e8262000253565b810181811067ffffffffffffffff82111715620002c057620002bf62000264565b5b80604052505050565b6000620002d562000235565b9050620002e3828262000293565b919050565b600067ffffffffffffffff82111562000306576200030562000264565b5b620003118262000253565b9050602081019050919050565b82818337600083830152505050565b6000620003446200033e84620002e8565b620002c9565b9050828152602081018484840111156200036357620003626200024e565b5b620003708482856200031e565b509392505050565b600082601f83011262000390576200038f62000249565b5b8135620003a28482602086016200032d565b91505092915050565b6000819050919050565b620003c081620003ab565b8114620003cc57600080fd5b50565b600081359050620003e081620003b5565b92915050565b600060ff82169050919050565b620003fe81620003e6565b81146200040a57600080fd5b50565b6000813590506200041e81620003f3565b92915050565b600080600080608085870312156200044157620004406200023f565b5b600085013567ffffffffffffffff81111562000462576200046162000244565b5b620004708782880162000378565b945050602085013567ffffffffffffffff81111562000494576200049362000244565b5b620004a28782880162000378565b9350506040620004b587828801620003cf565b9250506060620004c8878288016200040d565b91505092959194509250565b600073ffffffffffffffffffffffffffffffffffffffff82169050919050565b60006200050182620004d4565b9050919050565b6200051381620004f4565b82525050565b600060208201905062000530600083018462000508565b92915050565b600081519050919050565b600082825260208201905092915050565b60005b838110156200057257808201518184015260208101905062000555565b8381111562000582576000848401525b50505050565b6000620005958262000536565b620005a1818562000541565b9350620005b381856020860162000552565b620005be8162000253565b840191505092915050565b620005d481620003ab565b82525050565b620005e581620003e6565b82525050565b6000608082019050818103600083015262000607818762000588565b905081810360208301526200061d818662000588565b90506200062e6040830185620005c9565b6200063d6060830184620005da565b95945050505050565b7f4e487b7100000000000000000000000000000000000000000000000000000000600052603260045260246000fd5b7f4e487b7100000000000000000000000000000000000000000000000000000000600052601160045260246000fd5b6000620006b182620003ab565b9150620006be83620003ab565b9250827fffffffffffffffffffffffffffffffffffffffffffffffffffffffffffffffff03821115620006f657620006f562000675565b5b828201905092915050565b600060408201905062000718600083018562000508565b62000727602083018462000508565b939250505056fe60806040523480156200001157600080fd5b50604051620018383803806200183883398181016040528101906200003791906200035b565b83600490805190602001906200004f92919062000095565b5082600590805190602001906200006892919062000095565b508160028190555080600360006101000a81548160ff021916908360ff1602179055505050505062000470565b828054620000a3906200043a565b90600052602060002090601f016020900481019282620000c7576000855562000113565b82601f10620000e257805160ff191683800117855562000113565b8280016001018555821562000113579182015b8281111562000112578251825591602001919060010190620000f5565b5b50905062000122919062000126565b5090565b5b808211156200014157600081600090555060010162000127565b5090565b6000604051905090565b600080fd5b600080fd5b600080fd5b600080fd5b6000601f19601f8301169050919050565b7f4e487b7100000000000000000000000000000000000000000000000000000000600052604160045260246000fd5b620001ae8262000163565b810181811067ffffffffffffffff82111715620001d057620001cf62000174565b5b80604052505050565b6000620001e562000145565b9050620001f38282620001a3565b919050565b600067ffffffffffffffff82111562000216576200021562000174565b5b620002218262000163565b9050602081019050919050565b60005b838110156200024e57808201518184015260208101905062000231565b838111156200025e576000848401525b50505050565b60006200027b6200027584620001f8565b620001d9565b9050828152602081018484840111156200029a57620002996200015e565b5b620002a78482856200022e565b509392505050565b600082601f830112620002c757620002c662000159565b5b8151620002d984826020860162000264565b91505092915050565b6000819050919050565b620002f781620002e2565b81146200030357600080fd5b50565b6000815190506200031781620002ec565b92915050565b600060ff82169050919050565b62000335816200031d565b81146200034157600080fd5b50565b60008151905062000355816200032a565b92915050565b600080600080608085870312156200037857620003776200014f565b5b600085015167ffffffffffffffff81111562000399576200039862000154565b5b620003a787828801620002af565b945050602085015167ffffffffffffffff811115620003cb57620003ca62000154565b5b620003d987828801620002af565b9350506040620003ec8782880162000306565b9250506060620003ff8782880162000344565b91505092959194509250565b7f4e487b7100000000000000000000000000000000000000000000000000000000600052602260045260246000fd5b600060028204905060018216806200045357607f821691505b602082108114156200046a57620004696200040b565b5b50919050565b6113b880620004806000396000f3fe608060405234801561001057600080fd5b50600436106100a95760003560e01c80633950935111610071578063395093511461016857806370a082311461019857806395d89b41146101c8578063a457c2d7146101e6578063a9059cbb14610216578063dd62ed3e14610246576100a9565b806306fdde03146100ae578063095ea7b3146100cc57806318160ddd146100fc57806323b872dd1461011a578063313ce5671461014a575b600080fd5b6100b6610276565b6040516100c39190610c4c565b60405180910390f35b6100e660048036038101906100e19190610d07565b610308565b6040516100f39190610d62565b60405180910390f35b610104610326565b6040516101119190610d8c565b60405180910390f35b610134600480360381019061012f9190610da7565b610330565b6040516101419190610d62565b60405180910390f35b610152610428565b60405161015f9190610e16565b60405180910390f35b610182600480360381019061017d9190610d07565b61043f565b60405161018f9190610d62565b60405180910390f35b6101b260048036038101906101ad9190610e31565b6104eb565b6040516101bf9190610d8c565b60405180910390f35b6101d0610533565b6040516101dd9190610c4c565b60405180910390f35b61020060048036038101906101fb9190610d07565b6105c5565b60405161020d9190610d62565b60405180910390f35b610230600480360381019061022b9190610d07565b6106b0565b60405161023d9190610d62565b60405180910390f35b610260600480360381019061025b9190610e5e565b6106ce565b60405161026d9190610d8c565b60405180910390f35b60606004805461028590610ecd565b80601f01602080910402602001604051908101604052809291908181526020018280546102b190610ecd565b80156102fe5780601f106102d3576101008083540402835291602001916102fe565b820191906000526020600020905b8154815290600101906020018083116102e157829003601f168201915b5050505050905090565b600061031c610315610755565b848461075d565b6001905092915050565b6000600254905090565b600061033d848484610928565b6000600160008673ffffffffffffffffffffffffffffffffffffffff1673ffffffffffffffffffffffffffffffffffffffff1681526020019081526020016000206000610388610755565b73ffffffffffffffffffffffffffffffffffffffff1673ffffffffffffffffffffffffffffffffffffffff16815260200190815260200160002054905082811015610408576040517f08c379a00000000000000000000000000000000000000000000000000000000081526004016103ff90610f71565b60405180910390fd5b61041c85610414610755565b85840361075d565b60019150509392505050565b6000600360009054906101000a900460ff16905090565b60006104e161044c610755565b84846001600061045a610755565b73ffffffffffffffffffffffffffffffffffffffff1673ffffffffffffffffffffffffffffffffffffffff16815260200190815260200160002060008873ffffffffffffffffffffffffffffffffffffffff1673ffffffffffffffffffffffffffffffffffffffff168152602001908152602001600020546104dc9190610fc0565b61075d565b6001905092915050565b60008060008373ffffffffffffffffffffffffffffffffffffffff1673ffffffffffffffffffffffffffffffffffffffff168152602001908152602001600020549050919050565b60606005805461054290610ecd565b80601f016020809104026020016040519081016040528092919081815260200182805461056e90610ecd565b80156105bb5780601f10610590576101008083540402835291602001916105bb565b820191906000526020600020905b81548152906001019060200180831161059e57829003601f168201915b5050505050905090565b600080600160006105d4610755565b73ffffffffffffffffffffffffffffffffffffffff1673ffffffffffffffffffffffffffffffffffffffff16815260200190815260200160002060008573ffffffffffffffffffffffffffffffffffffffff1673ffffffffffffffffffffffffffffffffffffffff16815260200190815260200160002054905082811015610691576040517f08c379a000000000000000000000000000000000000000000000000000000000815260040161068890611088565b60405180910390fd5b6106a561069c610755565b8585840361075d565b600191505092915050565b60006106c46106bd610755565b8484610928565b6001905092915050565b6000600160008473ffffffffffffffffffffffffffffffffffffffff1673ffffffffffffffffffffffffffffffffffffffff16815260200190815260200160002060008373ffffffffffffffffffffffffffffffffffffffff1673ffffffffffffffffffffffffffffffffffffffff16815260200190815260200160002054905092915050565b600033905090565b600073ffffffffffffffffffffffffffffffffffffffff168373ffffffffffffffffffffffffffffffffffffffff1614156107cd576040517f08c379a00000000000000000000000000000000000000000000000000000000081526004016107c49061111a565b60405180910390fd5b600073ffffffffffffffffffffffffffffffffffffffff168273ffffffffffffffffffffffffffffffffffffffff16141561083d576040517f08c379a0000000000000000000000000000000000000000000000000000000008152600401610834906111ac565b60405180910390fd5b80600160008573ffffffffffffffffffffffffffffffffffffffff1673ffffffffffffffffffffffffffffffffffffffff16815260200190815260200160002060008473ffffffffffffffffffffffffffffffffffffffff1673ffffffffffffffffffffffffffffffffffffffff168152602001908152602001600020819055508173ffffffffffffffffffffffffffffffffffffffff168373ffffffffffffffffffffffffffffffffffffffff167f8c5be1e5ebec7d5bd14f71427d1e84f3dd0314c0f7b2291e5b200ac8c7c3b9258360405161091b9190610d8c565b60405180910390a3505050565b600073ffffffffffffffffffffffffffffffffffffffff168373ffffffffffffffffffffffffffffffffffffffff161415610998576040517f08c379a000000000000000000000000000000000000000000000000000000000815260040161098f9061123e565b60405180910390fd5b600073ffffffffffffffffffffffffffffffffffffffff168273ffffffffffffffffffffffffffffffffffffffff161415610a08576040517f08c379a00000000000000000000000000000000000000000000000000000000081526004016109ff906112d0565b60405180910390fd5b610a13838383610ba9565b60008060008573ffffffffffffffffffffffffffffffffffffffff1673ffffffffffffffffffffffffffffffffffffffff16815260200190815260200160002054905081811015610a99576040517f08c379a0000000000000000000000000000000000000000000000000000000008152600401610a9090611362565b60405180910390fd5b8181036000808673ffffffffffffffffffffffffffffffffffffffff1673ffffffffffffffffffffffffffffffffffffffff16815260200190815260200160002081905550816000808573ffffffffffffffffffffffffffffffffffffffff1673ffffffffffffffffffffffffffffffffffffffff1681526020019081526020016000206000828254610b2c9190610fc0565b925050819055508273ffffffffffffffffffffffffffffffffffffffff168473ffffffffffffffffffffffffffffffffffffffff167fddf252ad1be2c89b69c2b068fc378daa952ba7f163c4a11628f55a4df523b3ef84604051610b909190610d8c565b60405180910390a3610ba3848484610bae565b50505050565b505050565b505050565b600081519050919050565b600082825260208201905092915050565b60005b83811015610bed578082015181840152602081019050610bd2565b83811115610bfc576000848401525b50505050565b6000601f19601f8301169050919050565b6000610c1e82610bb3565b610c288185610bbe565b9350610c38818560208601610bcf565b610c4181610c02565b840191505092915050565b60006020820190508181036000830152610c668184610c13565b905092915050565b600080fd5b600073ffffffffffffffffffffffffffffffffffffffff82169050919050565b6000610c9e82610c73565b9050919050565b610cae81610c93565b8114610cb957600080fd5b50565b600081359050610ccb81610ca5565b92915050565b6000819050919050565b610ce481610cd1565b8114610cef57600080fd5b50565b600081359050610d0181610cdb565b92915050565b60008060408385031215610d1e57610d1d610c6e565b5b6000610d2c85828601610cbc565b9250506020610d3d85828601610cf2565b9150509250929050565b60008115159050919050565b610d5c81610d47565b82525050565b6000602082019050610d776000830184610d53565b92915050565b610d8681610cd1565b82525050565b6000602082019050610da16000830184610d7d565b92915050565b600080600060608486031215610dc057610dbf610c6e565b5b6000610dce86828701610cbc565b9350506020610ddf86828701610cbc565b9250506040610df086828701610cf2565b9150509250925092565b600060ff82169050919050565b610e1081610dfa565b82525050565b6000602082019050610e2b6000830184610e07565b92915050565b600060208284031215610e4757610e46610c6e565b5b6000610e5584828501610cbc565b91505092915050565b60008060408385031215610e7557610e74610c6e565b5b6000610e8385828601610cbc565b9250506020610e9485828601610cbc565b9150509250929050565b7f4e487b7100000000000000000000000000000000000000000000000000000000600052602260045260246000fd5b60006002820490506001821680610ee557607f821691505b60208210811415610ef957610ef8610e9e565b5b50919050565b7f45524332303a207472616e7366657220616d6f756e742065786365656473206160008201527f6c6c6f77616e6365000000000000000000000000000000000000000000000000602082015250565b6000610f5b602883610bbe565b9150610f6682610eff565b604082019050919050565b60006020820190508181036000830152610f8a81610f4e565b9050919050565b7f4e487b7100000000000000000000000000000000000000000000000000000000600052601160045260246000fd5b6000610fcb82610cd1565b9150610fd683610cd1565b9250827fffffffffffffffffffffffffffffffffffffffffffffffffffffffffffffffff0382111561100b5761100a610f91565b5b828201905092915050565b7f45524332303a2064656372656173656420616c6c6f77616e63652062656c6f7760008201527f207a65726f000000000000000000000000000000000000000000000000000000602082015250565b6000611072602583610bbe565b915061107d82611016565b604082019050919050565b600060208201905081810360008301526110a181611065565b9050919050565b7f45524332303a20617070726f76652066726f6d20746865207a65726f2061646460008201527f7265737300000000000000000000000000000000000000000000000000000000602082015250565b6000611104602483610bbe565b915061110f826110a8565b604082019050919050565b60006020820190508181036000830152611133816110f7565b9050919050565b7f45524332303a20617070726f766520746f20746865207a65726f20616464726560008201527f7373000000000000000000000000000000000000000000000000000000000000602082015250565b6000611196602283610bbe565b91506111a18261113a565b604082019050919050565b600060208201905081810360008301526111c581611189565b9050919050565b7f45524332303a207472616e736665722066726f6d20746865207a65726f20616460008201527f6472657373000000000000000000000000000000000000000000000000000000602082015250565b6000611228602583610bbe565b9150611233826111cc565b604082019050919050565b600060208201905081810360008301526112578161121b565b9050919050565b7f45524332303a207472616e7366657220746f20746865207a65726f206164647260008201527f6573730000000000000000000000000000000000000000000000000000000000602082015250565b60006112ba602383610bbe565b91506112c58261125e565b604082019050919050565b600060208201905081810360008301526112e9816112ad565b9050919050565b7f45524332303a207472616e7366657220616d6f756e742065786365656473206260008201527f616c616e63650000000000000000000000000000000000000000000000000000602082015250565b600061134c602683610bbe565b9150611357826112f0565b604082019050919050565b6000602082019050818103600083015261137b8161133f565b905091905056fea2646970667358221220156a82c90969904bee63877dbd7de495d39f24f2b83a1e749c7cbca043426e7b64736f6c634300080a0033a264697066735822122018c590d1b5f02d59c1d37d98c2a52f9a81371f3514a7276459240248d4fe286464736f6c634300080a0033",
  "immutableReferences": {},
  "source": "\r\n/** \r\n *  SourceUnit: c:\\Users\\Shivam Agrawal\\Desktop\\Assignment\\contracts\\Assignment.sol\r\n*/\r\n            \r\n// SPDX-License-Identifier: MIT\r\n// OpenZeppelin Contracts v4.4.1 (token/ERC20/IERC20.sol)\r\n\r\npragma solidity ^0.8.0;\r\n\r\n/**\r\n * @dev Interface of the ERC20 standard as defined in the EIP.\r\n */\r\ninterface IERC20 {\r\n    /**\r\n     * @dev Returns the amount of tokens in existence.\r\n     */\r\n    function totalSupply() external view returns (uint256);\r\n\r\n    /**\r\n     * @dev Returns the amount of tokens owned by `account`.\r\n     */\r\n    function balanceOf(address account) external view returns (uint256);\r\n\r\n    /**\r\n     * @dev Moves `amount` tokens from the caller's account to `recipient`.\r\n     *\r\n     * Returns a boolean value indicating whether the operation succeeded.\r\n     *\r\n     * Emits a {Transfer} event.\r\n     */\r\n    function transfer(address recipient, uint256 amount) external returns (bool);\r\n\r\n    /**\r\n     * @dev Returns the remaining number of tokens that `spender` will be\r\n     * allowed to spend on behalf of `owner` through {transferFrom}. This is\r\n     * zero by default.\r\n     *\r\n     * This value changes when {approve} or {transferFrom} are called.\r\n     */\r\n    function allowance(address owner, address spender) external view returns (uint256);\r\n\r\n    /**\r\n     * @dev Sets `amount` as the allowance of `spender` over the caller's tokens.\r\n     *\r\n     * Returns a boolean value indicating whether the operation succeeded.\r\n     *\r\n     * ////IMPORTANT: Beware that changing an allowance with this method brings the risk\r\n     * that someone may use both the old and the new allowance by unfortunate\r\n     * transaction ordering. One possible solution to mitigate this race\r\n     * condition is to first reduce the spender's allowance to 0 and set the\r\n     * desired value afterwards:\r\n     * https://github.com/ethereum/EIPs/issues/20#issuecomment-263524729\r\n     *\r\n     * Emits an {Approval} event.\r\n     */\r\n    function approve(address spender, uint256 amount) external returns (bool);\r\n\r\n    /**\r\n     * @dev Moves `amount` tokens from `sender` to `recipient` using the\r\n     * allowance mechanism. `amount` is then deducted from the caller's\r\n     * allowance.\r\n     *\r\n     * Returns a boolean value indicating whether the operation succeeded.\r\n     *\r\n     * Emits a {Transfer} event.\r\n     */\r\n    function transferFrom(\r\n        address sender,\r\n        address recipient,\r\n        uint256 amount\r\n    ) external returns (bool);\r\n\r\n    /**\r\n     * @dev Emitted when `value` tokens are moved from one account (`from`) to\r\n     * another (`to`).\r\n     *\r\n     * Note that `value` may be zero.\r\n     */\r\n    event Transfer(address indexed from, address indexed to, uint256 value);\r\n\r\n    /**\r\n     * @dev Emitted when the allowance of a `spender` for an `owner` is set by\r\n     * a call to {approve}. `value` is the new allowance.\r\n     */\r\n    event Approval(address indexed owner, address indexed spender, uint256 value);\r\n}\r\n\r\n\r\n\r\n\r\n/** \r\n *  SourceUnit: c:\\Users\\Shivam Agrawal\\Desktop\\Assignment\\contracts\\Assignment.sol\r\n*/\r\n            \r\n////// SPDX-License-Identifier-FLATTEN-SUPPRESS-WARNING: MIT\r\n// OpenZeppelin Contracts v4.4.1 (utils/Context.sol)\r\n\r\npragma solidity ^0.8.0;\r\n\r\n/**\r\n * @dev Provides information about the current execution context, including the\r\n * sender of the transaction and its data. While these are generally available\r\n * via msg.sender and msg.data, they should not be accessed in such a direct\r\n * manner, since when dealing with meta-transactions the account sending and\r\n * paying for execution may not be the actual sender (as far as an application\r\n * is concerned).\r\n *\r\n * This contract is only required for intermediate, library-like contracts.\r\n */\r\nabstract contract Context {\r\n    function _msgSender() internal view virtual returns (address) {\r\n        return msg.sender;\r\n    }\r\n\r\n    function _msgData() internal view virtual returns (bytes calldata) {\r\n        return msg.data;\r\n    }\r\n}\r\n\r\n\r\n\r\n\r\n/** \r\n *  SourceUnit: c:\\Users\\Shivam Agrawal\\Desktop\\Assignment\\contracts\\Assignment.sol\r\n*/\r\n            \r\n////// SPDX-License-Identifier-FLATTEN-SUPPRESS-WARNING: MIT\r\n// OpenZeppelin Contracts v4.4.1 (token/ERC20/extensions/IERC20Metadata.sol)\r\n\r\npragma solidity ^0.8.0;\r\n\r\n////import \"../IERC20.sol\";\r\n\r\n/**\r\n * @dev Interface for the optional metadata functions from the ERC20 standard.\r\n *\r\n * _Available since v4.1._\r\n */\r\ninterface IERC20Metadata is IERC20 {\r\n    /**\r\n     * @dev Returns the name of the token.\r\n     */\r\n    function name() external view returns (string memory);\r\n\r\n    /**\r\n     * @dev Returns the symbol of the token.\r\n     */\r\n    function symbol() external view returns (string memory);\r\n\r\n    /**\r\n     * @dev Returns the decimals places of the token.\r\n     */\r\n    function decimals() external view returns (uint8);\r\n}\r\n\r\n\r\n\r\n\r\n/** \r\n *  SourceUnit: c:\\Users\\Shivam Agrawal\\Desktop\\Assignment\\contracts\\Assignment.sol\r\n*/\r\n            \r\n////// SPDX-License-Identifier-FLATTEN-SUPPRESS-WARNING: MIT\r\n// OpenZeppelin Contracts v4.4.1 (token/ERC20/ERC20.sol)\r\n\r\npragma solidity ^0.8.0;\r\n\r\n////import \"./IERC20.sol\";\r\n////import \"./extensions/IERC20Metadata.sol\";\r\n////import \"../../utils/Context.sol\";\r\n\r\n/**\r\n * @dev Implementation of the {IERC20} interface.\r\n *\r\n * This implementation is agnostic to the way tokens are created. This means\r\n * that a supply mechanism has to be added in a derived contract using {_mint}.\r\n * For a generic mechanism see {ERC20PresetMinterPauser}.\r\n *\r\n * TIP: For a detailed writeup see our guide\r\n * https://forum.zeppelin.solutions/t/how-to-implement-erc20-supply-mechanisms/226[How\r\n * to implement supply mechanisms].\r\n *\r\n * We have followed general OpenZeppelin Contracts guidelines: functions revert\r\n * instead returning `false` on failure. This behavior is nonetheless\r\n * conventional and does not conflict with the expectations of ERC20\r\n * applications.\r\n *\r\n * Additionally, an {Approval} event is emitted on calls to {transferFrom}.\r\n * This allows applications to reconstruct the allowance for all accounts just\r\n * by listening to said events. Other implementations of the EIP may not emit\r\n * these events, as it isn't required by the specification.\r\n *\r\n * Finally, the non-standard {decreaseAllowance} and {increaseAllowance}\r\n * functions have been added to mitigate the well-known issues around setting\r\n * allowances. See {IERC20-approve}.\r\n */\r\ncontract ERC20 is Context, IERC20, IERC20Metadata {\r\n    mapping(address => uint256) private _balances;\r\n\r\n    mapping(address => mapping(address => uint256)) private _allowances;\r\n\r\n    uint256 private _totalSupply;\r\n    uint8 private _decimals;\r\n    string private _name;\r\n    string private _symbol;\r\n\r\n    /**\r\n     * @dev Sets the values for {name} and {symbol}.\r\n     *\r\n     * The default value of {decimals} is 18. To select a different value for\r\n     * {decimals} you should overload it.\r\n     *\r\n     * All two of these values are immutable: they can only be set once during\r\n     * construction.\r\n     */\r\n    constructor(\r\n        string memory name_, \r\n        string memory symbol_, \r\n        uint totalSupply_, \r\n        uint8 decimals_) \r\n        {\r\n        _name = name_;\r\n        _symbol = symbol_;\r\n        _totalSupply = totalSupply_;\r\n        _decimals = decimals_;\r\n    }\r\n\r\n    /**\r\n     * @dev Returns the name of the token.\r\n     */\r\n    function name() public view virtual override returns (string memory) {\r\n        return _name;\r\n    }\r\n\r\n    /**\r\n     * @dev Returns the symbol of the token, usually a shorter version of the\r\n     * name.\r\n     */\r\n    function symbol() public view virtual override returns (string memory) {\r\n        return _symbol;\r\n    }\r\n\r\n    /**\r\n     * @dev Returns the number of decimals used to get its user representation.\r\n     * For example, if `decimals` equals `2`, a balance of `505` tokens should\r\n     * be displayed to a user as `5.05` (`505 / 10 ** 2`).\r\n     *\r\n     * Tokens usually opt for a value of 18, imitating the relationship between\r\n     * Ether and Wei. This is the value {ERC20} uses, unless this function is\r\n     * overridden;\r\n     *\r\n     * NOTE: This information is only used for _display_ purposes: it in\r\n     * no way affects any of the arithmetic of the contract, including\r\n     * {IERC20-balanceOf} and {IERC20-transfer}.\r\n     */\r\n    function decimals() public view virtual override returns (uint8) {\r\n        return _decimals;\r\n    }\r\n\r\n    /**\r\n     * @dev See {IERC20-totalSupply}.\r\n     */\r\n    function totalSupply() public view virtual override returns (uint256) {\r\n        return _totalSupply;\r\n    }\r\n\r\n    /**\r\n     * @dev See {IERC20-balanceOf}.\r\n     */\r\n    function balanceOf(address account) public view virtual override returns (uint256) {\r\n        return _balances[account];\r\n    }\r\n\r\n    /**\r\n     * @dev See {IERC20-transfer}.\r\n     *\r\n     * Requirements:\r\n     *\r\n     * - `recipient` cannot be the zero address.\r\n     * - the caller must have a balance of at least `amount`.\r\n     */\r\n    function transfer(address recipient, uint256 amount) public virtual override returns (bool) {\r\n        _transfer(_msgSender(), recipient, amount);\r\n        return true;\r\n    }\r\n\r\n    /**\r\n     * @dev See {IERC20-allowance}.\r\n     */\r\n    function allowance(address owner, address spender) public view virtual override returns (uint256) {\r\n        return _allowances[owner][spender];\r\n    }\r\n\r\n    /**\r\n     * @dev See {IERC20-approve}.\r\n     *\r\n     * Requirements:\r\n     *\r\n     * - `spender` cannot be the zero address.\r\n     */\r\n    function approve(address spender, uint256 amount) public virtual override returns (bool) {\r\n        _approve(_msgSender(), spender, amount);\r\n        return true;\r\n    }\r\n\r\n    /**\r\n     * @dev See {IERC20-transferFrom}.\r\n     *\r\n     * Emits an {Approval} event indicating the updated allowance. This is not\r\n     * required by the EIP. See the note at the beginning of {ERC20}.\r\n     *\r\n     * Requirements:\r\n     *\r\n     * - `sender` and `recipient` cannot be the zero address.\r\n     * - `sender` must have a balance of at least `amount`.\r\n     * - the caller must have allowance for ``sender``'s tokens of at least\r\n     * `amount`.\r\n     */\r\n    function transferFrom(\r\n        address sender,\r\n        address recipient,\r\n        uint256 amount\r\n    ) public virtual override returns (bool) {\r\n        _transfer(sender, recipient, amount);\r\n\r\n        uint256 currentAllowance = _allowances[sender][_msgSender()];\r\n        require(currentAllowance >= amount, \"ERC20: transfer amount exceeds allowance\");\r\n        unchecked {\r\n            _approve(sender, _msgSender(), currentAllowance - amount);\r\n        }\r\n\r\n        return true;\r\n    }\r\n\r\n    /**\r\n     * @dev Atomically increases the allowance granted to `spender` by the caller.\r\n     *\r\n     * This is an alternative to {approve} that can be used as a mitigation for\r\n     * problems described in {IERC20-approve}.\r\n     *\r\n     * Emits an {Approval} event indicating the updated allowance.\r\n     *\r\n     * Requirements:\r\n     *\r\n     * - `spender` cannot be the zero address.\r\n     */\r\n    function increaseAllowance(address spender, uint256 addedValue) public virtual returns (bool) {\r\n        _approve(_msgSender(), spender, _allowances[_msgSender()][spender] + addedValue);\r\n        return true;\r\n    }\r\n\r\n    /**\r\n     * @dev Atomically decreases the allowance granted to `spender` by the caller.\r\n     *\r\n     * This is an alternative to {approve} that can be used as a mitigation for\r\n     * problems described in {IERC20-approve}.\r\n     *\r\n     * Emits an {Approval} event indicating the updated allowance.\r\n     *\r\n     * Requirements:\r\n     *\r\n     * - `spender` cannot be the zero address.\r\n     * - `spender` must have allowance for the caller of at least\r\n     * `subtractedValue`.\r\n     */\r\n    function decreaseAllowance(address spender, uint256 subtractedValue) public virtual returns (bool) {\r\n        uint256 currentAllowance = _allowances[_msgSender()][spender];\r\n        require(currentAllowance >= subtractedValue, \"ERC20: decreased allowance below zero\");\r\n        unchecked {\r\n            _approve(_msgSender(), spender, currentAllowance - subtractedValue);\r\n        }\r\n\r\n        return true;\r\n    }\r\n\r\n    /**\r\n     * @dev Moves `amount` of tokens from `sender` to `recipient`.\r\n     *\r\n     * This internal function is equivalent to {transfer}, and can be used to\r\n     * e.g. implement automatic token fees, slashing mechanisms, etc.\r\n     *\r\n     * Emits a {Transfer} event.\r\n     *\r\n     * Requirements:\r\n     *\r\n     * - `sender` cannot be the zero address.\r\n     * - `recipient` cannot be the zero address.\r\n     * - `sender` must have a balance of at least `amount`.\r\n     */\r\n    function _transfer(\r\n        address sender,\r\n        address recipient,\r\n        uint256 amount\r\n    ) internal virtual {\r\n        require(sender != address(0), \"ERC20: transfer from the zero address\");\r\n        require(recipient != address(0), \"ERC20: transfer to the zero address\");\r\n\r\n        _beforeTokenTransfer(sender, recipient, amount);\r\n\r\n        uint256 senderBalance = _balances[sender];\r\n        require(senderBalance >= amount, \"ERC20: transfer amount exceeds balance\");\r\n        unchecked {\r\n            _balances[sender] = senderBalance - amount;\r\n        }\r\n        _balances[recipient] += amount;\r\n\r\n        emit Transfer(sender, recipient, amount);\r\n\r\n        _afterTokenTransfer(sender, recipient, amount);\r\n    }\r\n\r\n    /** @dev Creates `amount` tokens and assigns them to `account`, increasing\r\n     * the total supply.\r\n     *\r\n     * Emits a {Transfer} event with `from` set to the zero address.\r\n     *\r\n     * Requirements:\r\n     *\r\n     * - `account` cannot be the zero address.\r\n     */\r\n    function _mint(address account, uint256 amount) internal virtual {\r\n        require(account != address(0), \"ERC20: mint to the zero address\");\r\n\r\n        _beforeTokenTransfer(address(0), account, amount);\r\n\r\n        _totalSupply += amount;\r\n        _balances[account] += amount;\r\n        emit Transfer(address(0), account, amount);\r\n\r\n        _afterTokenTransfer(address(0), account, amount);\r\n    }\r\n\r\n    /**\r\n     * @dev Destroys `amount` tokens from `account`, reducing the\r\n     * total supply.\r\n     *\r\n     * Emits a {Transfer} event with `to` set to the zero address.\r\n     *\r\n     * Requirements:\r\n     *\r\n     * - `account` cannot be the zero address.\r\n     * - `account` must have at least `amount` tokens.\r\n     */\r\n    function _burn(address account, uint256 amount) internal virtual {\r\n        require(account != address(0), \"ERC20: burn from the zero address\");\r\n\r\n        _beforeTokenTransfer(account, address(0), amount);\r\n\r\n        uint256 accountBalance = _balances[account];\r\n        require(accountBalance >= amount, \"ERC20: burn amount exceeds balance\");\r\n        unchecked {\r\n            _balances[account] = accountBalance - amount;\r\n        }\r\n        _totalSupply -= amount;\r\n\r\n        emit Transfer(account, address(0), amount);\r\n\r\n        _afterTokenTransfer(account, address(0), amount);\r\n    }\r\n\r\n    /**\r\n     * @dev Sets `amount` as the allowance of `spender` over the `owner` s tokens.\r\n     *\r\n     * This internal function is equivalent to `approve`, and can be used to\r\n     * e.g. set automatic allowances for certain subsystems, etc.\r\n     *\r\n     * Emits an {Approval} event.\r\n     *\r\n     * Requirements:\r\n     *\r\n     * - `owner` cannot be the zero address.\r\n     * - `spender` cannot be the zero address.\r\n     */\r\n    function _approve(\r\n        address owner,\r\n        address spender,\r\n        uint256 amount\r\n    ) internal virtual {\r\n        require(owner != address(0), \"ERC20: approve from the zero address\");\r\n        require(spender != address(0), \"ERC20: approve to the zero address\");\r\n\r\n        _allowances[owner][spender] = amount;\r\n        emit Approval(owner, spender, amount);\r\n    }\r\n\r\n    /**\r\n     * @dev Hook that is called before any transfer of tokens. This includes\r\n     * minting and burning.\r\n     *\r\n     * Calling conditions:\r\n     *\r\n     * - when `from` and `to` are both non-zero, `amount` of ``from``'s tokens\r\n     * will be transferred to `to`.\r\n     * - when `from` is zero, `amount` tokens will be minted for `to`.\r\n     * - when `to` is zero, `amount` of ``from``'s tokens will be burned.\r\n     * - `from` and `to` are never both zero.\r\n     *\r\n     * To learn more about hooks, head to xref:ROOT:extending-contracts.adoc#using-hooks[Using Hooks].\r\n     */\r\n    function _beforeTokenTransfer(\r\n        address from,\r\n        address to,\r\n        uint256 amount\r\n    ) internal virtual {}\r\n\r\n    /**\r\n     * @dev Hook that is called after any transfer of tokens. This includes\r\n     * minting and burning.\r\n     *\r\n     * Calling conditions:\r\n     *\r\n     * - when `from` and `to` are both non-zero, `amount` of ``from``'s tokens\r\n     * has been transferred to `to`.\r\n     * - when `from` is zero, `amount` tokens have been minted for `to`.\r\n     * - when `to` is zero, `amount` of ``from``'s tokens have been burned.\r\n     * - `from` and `to` are never both zero.\r\n     *\r\n     * To learn more about hooks, head to xref:ROOT:extending-contracts.adoc#using-hooks[Using Hooks].\r\n     */\r\n    function _afterTokenTransfer(\r\n        address from,\r\n        address to,\r\n        uint256 amount\r\n    ) internal virtual {}\r\n}\r\n\r\n\r\n/** \r\n *  SourceUnit: c:\\Users\\Shivam Agrawal\\Desktop\\Assignment\\contracts\\Assignment.sol\r\n*/\r\n\r\n\r\npragma solidity ^0.8.0;\r\n\r\ncontract ERC20TokenCreater{\r\n    mapping(address => address[]) tokenCreatedBy;\r\n    mapping(address => uint256) noOfTokensCreated; \r\n    constructor(){}\r\n\r\n    function ERC20TokenCreator(\r\n        string memory name, \r\n        string memory symbol, \r\n        uint256 totalSupply, \r\n        uint8 decimals)\r\n        external\r\n        returns(address)\r\n        {\r\n            ERC20 token  = new ERC20(\r\n                                name, \r\n                                symbol, \r\n                                totalSupply, \r\n                                decimals\r\n                                );\r\n            tokenCreatedBy[msg.sender][noOfTokensCreated[msg.sender]] = address(token);\r\n            noOfTokensCreated[msg.sender] +=1;\r\n            emit ERC20TokenCreated(address(token), msg.sender);\r\n            return(address(token));\r\n    }  \r\n\r\n    event ERC20TokenCreated(address token, address creator);\r\n}",
  "sourcePath": "C:\\Users\\Shivam Agrawal\\Desktop\\Assignment\\contracts\\ERC20TokenCreator.sol",
  "compiler": {
    "name": "solc",
    "version": "0.8.10+commit.fc410830.Emscripten.clang"
  },
  "schemaVersion": "3.4.3",
  "updatedAt": "2022-01-03T15:23:40.100Z",
  "devdoc": {
    "kind": "dev",
    "methods": {},
    "version": 1
  },
  "userdoc": {
    "kind": "user",
    "methods": {},
    "version": 1
  }
}